:100000000C948C000C9473020C949C020C94C5020A
:100010000C94EE020C9417030C9440030C946903A7
:100020000C9492030C94B1000C94CC0E0C94B1007F
:100030000C94B1000C94B1000C94B1000C94B1007C
:100040000C94B1000C94F40F0C9420100C944C10F0
:100050000C94B1000C94B1000C94B1000C94B1005C
:100060000C94B1000C9424120C94B1000C94B100C7
:100070000C94B1000C94B1000C94B1000C94B1003C
:100080000C94B1000C94B1000C94B1000C94B1002C
:100090000C9453120C94B1000C94B1000C94B10068
:1000A0000C94B1000C94B1000C9478100C94A41032
:1000B0000C94D0100C94B1000C94B1000C94B100CD
:1000C0000C94B1000C94B1000C94B1000C94821209
:1000D0000C94B1000C94B1000C94B1120C94B100CA
:1000E0000C94B1000C94A70A0C94E0120C941E110D
:1000F0000C94100E0C9430110C944C010C941201C1
:100100000C94FD0D0C94B7000C9468050C94360506
:100110000C9459050C94BB0811241FBECFEFD1E2FB
:10012000DEBFCDBF00E00CBF13E0A0E0B2E0E4E032
:10013000FDE200E00BBF02C007900D92A231B107B3
:10014000D9F72AE0A2E1B3E001C01D92A738B207B7
:10015000E1F70E94B3000C9480160E9487010C9472
:1001600080160C9400000E94BB030C946B05CF9387
:10017000DF93CDB7DEB764970FB6F894DEBF0FBE3E
:10018000CDBF62E080910402909105020E94F601C9
:1001900062E080910202909103020E94F6018E01BA
:1001A0000F5E1F4FCE0109960E94700861E070E05B
:1001B00082E997E00E94C3038091040290910502B6
:1001C0000E943402892B19F41A8A198A04C081E02A
:1001D00090E09A8B898B80910202909103020E9499
:1001E0003402892B19F41C8A1B8A04C081E090E038
:1001F0009C8B8B8B1E830D8382E997E00E94090400
:1002000020E030E0A9016AEF70E080E090E00E9419
:10021000EA086091960770919707CE0101960E94B7
:100220004408C0CFCF93DF93CDB7DEB760970FB64A
:10023000F894DEBF0FBECDBFCE0109960E947008B4
:1002400061E070E082E997E00E94C303ED85FE85DE
:10025000228133818081918182239323092E000C96
:10026000AA0BBB0B8D839E83AF83B88782E997E08F
:100270000E94090420E030E0A9016EE370E080E014
:1002800090E00E94EA086091940770919507CE0172
:1002900001960E944408D0CFCF93DF93CDB7DEB74D
:1002A00028970FB6F894DEBF0FBECDBF63E08091F4
:1002B0000002909101020E94F601CE0101960E9477
:1002C000700861E070E082E997E00E94C3034D810D
:1002D0005E816F81788580910002909101024130AA
:1002E00051056105710519F40E94480202C00E947F
:1002F000590282E997E00E94090420E030E0A90158
:100300006AEF70E080E090E00E94EA08D6CFCF93D9
:10031000DF93CDB7DEB728970FB6F894DEBF0FBED8
:10032000CDBF1092930710929207C12CD12CE12CD3
:10033000F12C07EB10E024E030E046E060E871E0EB
:1003400082E196E00E94CB059093990780939807ED
:1003500002E111E024E030E046E060E871E082E98B
:1003600094E00E94CB0590939707809396070CE446
:1003700011E024E030E046E060E871E082E193E0E3
:100380000E94CB05909395078093940760919807FE
:1003900070919907CE0101960E944408F7CF24E09E
:1003A000969587952A95E1F7282F2F7033E0239FA4
:1003B000C0011124273010F48296089583519F4F75
:1003C000089591E09093260A24E0829FC0011124B1
:1003D000DC01A656B84FED91FC91119712968D91C4
:1003E0009C91139719951092260A0895CF93C82FC0
:1003F000623031F16330B9F0611132C00E94CF0137
:10040000FC014291CF7021E030E002C0220F331F87
:10041000CA95E2F720953095342F32233083FC01C2
:100420003081232319C00E94CF01FC018291CF703B
:1004300021E030E001C0220FCA95EAF7282B0CC05A
:100440000E94CF01FC014081CF7021E030E001C06B
:10045000220FCA95EAF7242B208380E090E002C0A7
:100460008FEF9FEFCF910895CF93C82F0E94CF01B8
:100470000297FC01208130E0CF7081E090E002C063
:10048000880F991FCA95E2F782239323CF9108958D
:10049000CF93C82F0E94CF01FC014081CF7021E093
:1004A00030E001C0220FCA95EAF7242B2083CF91B8
:1004B0000895CF93C82F0E94CF01FC014081CF70D7
:1004C00021E030E002C0220F331FCA95E2F72095E9
:1004D000309524232083CF910895672B11F00C943D
:1004E00048020C9459021F920F920FB60F921124DA
:1004F0000BB60F922F933F934F935F936F937F931E
:100500008F939F93AF93BF93EF93FF9380E00E94ED
:10051000E101FF91EF91BF91AF919F918F917F91F9
:100520006F915F914F913F912F910F900BBE0F9064
:100530000FBE0F901F9018951F920F920FB60F923B
:1005400011240BB60F922F933F934F935F936F93AA
:100550007F938F939F93AF93BF93EF93FF9381E02C
:100560000E94E101FF91EF91BF91AF919F918F9117
:100570007F916F915F914F913F912F910F900BBEA3
:100580000F900FBE0F901F9018951F920F920FB6ED
:100590000F9211240BB60F922F933F934F935F93BB
:1005A0006F937F938F939F93AF93BF93EF93FF933B
:1005B00082E00E94E101FF91EF91BF91AF919F9185
:1005C0008F917F916F915F914F913F912F910F90FC
:1005D0000BBE0F900FBE0F901F9018951F920F9299
:1005E0000FB60F9211240BB60F922F933F934F9398
:1005F0005F936F937F938F939F93AF93BF93EF938B
:10060000FF9383E00E94E101FF91EF91BF91AF91D1
:100610009F918F917F916F915F914F913F912F911A
:100620000F900BBE0F900FBE0F901F9018951F924A
:100630000F920FB60F9211240BB60F922F933F9388
:100640004F935F936F937F938F939F93AF93BF93DA
:10065000EF93FF9384E00E94E101FF91EF91BF913E
:10066000AF919F918F917F916F915F914F913F914A
:100670002F910F900BBE0F900FBE0F901F901895EB
:100680001F920F920FB60F9211240BB60F922F9359
:100690003F934F935F936F937F938F939F93AF930A
:1006A000BF93EF93FF9385E00E94E101FF91EF91EB
:1006B000BF91AF919F918F917F916F915F914F917A
:1006C0003F912F910F900BBE0F900FBE0F901F9078
:1006D00018951F920F920FB60F9211240BB60F921E
:1006E0002F933F934F935F936F937F938F939F933A
:1006F000AF93BF93EF93FF9386E00E94E101FF91D8
:10070000EF91BF91AF919F918F917F916F915F9189
:100710004F913F912F910F900BBE0F900FBE0F90F6
:100720001F9018951F920F920FB60F9211240BB6BF
:100730000F922F933F934F935F936F937F938F937A
:100740009F93AF93BF93EF93FF9387E00E94E101E4
:10075000FF91EF91BF91AF919F918F917F916F9199
:100760005F914F913F912F910F900BBE0F900FBE55
:100770000F901F9018950E94220E0E94B9080E94A7
:1007800017110C94380EEF92FF920F931F93CF9393
:10079000DF93EC018B010E94320E7C0188819981EC
:1007A000892B41F48FEF9FEF99838883C7010E94C3
:1007B0003E0E20C0012B09F10091CC071091CD070E
:1007C00062E070E0C8010E948A04888199810196E4
:1007D00041F4C801069699838883F801178216822E
:1007E00004C0B801CE010E94AA05C7010E943E0EB6
:1007F0000E94C50E81E090E005C0C7010E943E0E38
:1008000080E090E0DF91CF911F910F91FF90EF90EA
:100810000895EF92FF920F931F93CF93DF938C0174
:100820000E94320E7C01D801ED91FC91309739F095
:10083000EF3FBFEFFB0761F4F80111821082C7019F
:10084000DF91CF911F910F91FF90EF900C943E0E8E
:1008500080819181D8018D939C93EF0126976AE066
:1008600070E0CE010E948A04F80180819181892B79
:1008700021F48FEF9FEF91838083CB81D0E0C7017C
:100880000E943E0ECE01DF91CF911F910F91FF90FC
:10089000EF900C941C051092110810921008A09172
:1008A000CC07B091CD072091A6073091A70780E033
:1008B00090E020FD04C0369527950196FACF880F69
:1008C000991FFC01E655F84F0190F081E02D019051
:1008D000F081E02D3697AE17BF07C9F0109741F0B1
:1008E00012968C911297893019F48AE012968C93A3
:1008F00089E08283848195819093CB078093CA0796
:10090000F093CD07E093CC0781E090E0089580E07C
:1009100090E008950F931F93CF93DF93FC018281A2
:1009200069307105E0F1893008F080C09F012A5FCD
:100930003F4F838190E0880F991FDC01A655B84F87
:10094000CD91DC911197209751F0488159815783BF
:1009500046830D90BC91A02D2D933C9302C037830C
:100960002683DC01A655B84F2D933C9381E090E09F
:10097000038002C0880F991F0A94E2F7092E000C29
:10098000AA0BBB0B0091A6071091A7072091A807FF
:100990003091A907802B912BA22BB32B3FC089301C
:1009A00008F444C0A381B0E0AA0FBB1FA655B84FFE
:1009B000CD91DC911197209769F088819981C817B2
:1009C000D90719F41D921C9205C0DC018D919C91F0
:1009D000998388832381A22FB0E0AA0FBB1FA6555D
:1009E000B84F8D919C91892B09F581E090E002C070
:1009F000880F991F2A95E2F780959095092E000C93
:100A0000AA0BBB0B0091A6071091A7072091A8077E
:100A10003091A90780239123A223B3238093A607B3
:100A20009093A707A093A807B093A9076283DF91CB
:100A3000CF911F910F910895E091CC07F091CD07D0
:100A400023813281393020F030E08217930768F437
:100A50000E94480E892B39F081E090E090931108B4
:100A60008093100808950C94C50E08950E94320ECC
:100A7000E091CA07F091CB07EE0FFF1FE253F84F4A
:100A8000118210828091120890911308019790931F
:100A900013088093120860E070E08091CC07909179
:100AA000CD070E948A041092CD071092CC070E94B5
:100AB000B20E0E94FC1088E492E09F938F930E94F4
:100AC00095130E9487010F900F9080E090E00895A9
:100AD0000E94FC0DFDCF0E94320EC0900602D09005
:100AE0000702E12CF12C08E615E02CE030E04FE0A5
:100AF00060E870E084E198E00E94CB05C0900802B5
:100B0000D090090209E515E02CE030E047E060E80C
:100B100071E084E998E00E94CB050E94B20E0E9429
:100B2000320EE091CC07F091CD072281293070F090
:100B3000E381F0E0EE0FFF1FE655F84FA081B18191
:100B4000109721F02D913C91318320830E943E0E1D
:100B50000C94C50EFB012281293028F062EE72E070
:100B600083E00E9475086381AF014A5F5F4FDC013B
:100B70002D913C912115310541F0D901169713961D
:100B80007C91671710F0C901F2CF37832683FC01EF
:100B90005183408308952F923F924F925F926F92BC
:100BA0007F928F929F92AF92BF92CF92DF92EF92FD
:100BB000FF920F931F93CF93DF9300D01F92CDB777
:100BC000DEB7522F40310CF08EC09B012A51310903
:100BD000DC01A20FB31FBC83AB83FC0153FF09C030
:100BE000AB81BC81EA17FB0730F4F183E0833296D6
:100BF000F7CF9183808317013801E52EF42E2B0166
:100C00005C0129833A830E94320E4C01E0EDF7E04B
:100C100001E010E03A81298181919191892B09F0BD
:100C200041C0F801EE0FFF1FE253F84F8B819C810A
:100C300091838083DC0115961C930E931497A50174
:100C4000B101C3010E947D0EEB81FC819183808301
:100C5000B58AA48A518E408ED78AC68AF3821282C0
:100C600017821682118610861386128615861486C0
:100C7000178616868FEF9FEF918B808B138A128ACF
:100C80008091120890911308019690931308809315
:100C90001208E0FE12C061E070E08B819C810E942E
:100CA0008A041CC00F5F1F4F0132110509F0B4CF39
:100CB000C4010E943E0E8FEB17C06AE070E08B818A
:100CC0009C810E948A04E2FC09C0C4010E943E0E7D
:100CD0008F2DFF0C990B0E941C0503C0C4010E94BC
:100CE0003E0EC80102C084EE9FEF0F900F900F9050
:100CF0000F90DF91CF911F910F91FF90EF90DF90B8
:100D0000CF90BF90AF909F908F907F906F905F90AB
:100D10004F903F902F900895CF93DF93EC012E8555
:100D20003F85A889B9898C859D85A901481B590BE8
:100D3000A417B5071CF480E090E019C0C901019622
:100D40009F878E872A233B2337FDF5CF83E0220F31
:100D5000331F8A95E1F7AA89BB89A20FB31F88E0E8
:100D6000FB0101900D928A95E1F781E090E0DF911F
:100D7000CF910895AF92BF92CF92DF92EF92FF9200
:100D80000F931F93CF93DF931F921F92CDB7DEB7C0
:100D90005C017901660F771FFB01E253F84F008178
:100DA00011818091CA079091CB07F50191838083CF
:100DB0000115110531F4C9010E943E0E2FEF3FEFDE
:100DC0004CC0C090CC07D090CD07F8018281833011
:100DD00079F1B501C80149830E948C069C014981C3
:100DE000892B41F0C7010E943E0EF60182818530B9
:100DF00091F52FC0411108C0C70129833A830E9491
:100E00003E0E29813A8129C0F601B186A0868281F1
:100E1000853019F064E070E002C065E070E0C60162
:100E20000E948A04B601C8010A960E94AA050EC053
:100E3000F801A085B18588E0F50101900D928A95B1
:100E4000E1F76AE070E0C8010E948A04C7010E94CD
:100E50003E0E0E94C50E21E030E0C9010F900F90B8
:100E6000DF91CF911F910F91FF90EF90DF90CF9086
:100E7000BF90AF900895CF92DF92EF92FF920F93C1
:100E80001F93CF93DF938C016B010E94320E7C0184
:100E9000E091CA07F091CB07EE0FFF1FE253F84F26
:100EA000C081D1818A899B89009789F12C853D85F4
:100EB0004E855F854217530751F1A9014F5F5F4F80
:100EC0005D874C874889598924233523CD2871F4BF
:100ED0004A855B85452B51F42F3F4FEF340731F4A2
:100EE000C7010E943E0E8FEF9FEF75C037FD13C004
:100EF000F90143E0EE0FFF1F4A95E1F7E80FF91FF4
:100F000048E0D80101900D924A95E1F706C02FEF15
:100F10003FEFCD28E9F219870887EA85FB853097EE
:100F200009F448C0408151815B874A8737FD1DC065
:100F30000E851F85288939894C855D85B801641B1C
:100F4000750B2617370744F0A8014F5F5F4F5F8787
:100F50004E870223132302C00FEF1FEF23E0000F81
:100F6000111F2A95E1F7080F191FEF012697E88551
:100F7000F98588E0D80101900D928A95E1F78A8180
:100F8000853051F0198618866AE070E0CE010E9423
:100F90008A04CB81D0E002C0CFE0D0E0C7010E943C
:100FA0003E0ECF30D10518F4CE010E941C0581E021
:100FB00090E011C037FF0BC063E070E0CE010E94EB
:100FC0008A04C7010E943E0E0E94C50EF0CFC701E1
:100FD0000E943E0EECCFDF91CF911F910F91FF90B9
:100FE000EF90DF90CF9008950F931F93CF93DF93EF
:100FF000EC010E94320E8C018091CA079091CB07C0
:1010000099838883BE018091CC079091CD070E947F
:101010008C06EC01C8010E943E0ECE01DF91CF91FB
:101020001F910F910895CF93DF93FB01EE0FFF1FE8
:10103000E253F84FC081D181209709F121E230E0DD
:10104000FC01318320832A81233099F4A885B98556
:1010500088E001900D928A95E1F76AE070E0CE0198
:101060000E948A0481E090E0909311088093100818
:1010700008C0BC01CE01DF91CF910C948C068FEF9C
:101080009FEFDF91CF9108950F931F93CF93DF933D
:10109000EC018B010E94480E892B41F0B801CE0172
:1010A000DF91CF911F910F910C9413088091CA0783
:1010B0009091CB078017910739F4CE01DF91CF9142
:1010C0001F910F910C94F4070E94320E9C0141E095
:1010D000B801CE01DF91CF911F910F910C94BA0608
:1010E00061E070E00C943B070895CF93DF931F926B
:1010F0001F92CDB7DEB72091140A3091150A232B29
:1011000091F521E030E03093150A2093140A8330E2
:10111000B1F40EB6202D0DB6802D90E0922B9F934A
:101120008F9381EA92E09F938F9369837A830E94E1
:1011300095130F900F900F900F907A8169817F9394
:101140006F9388EB92E09F938F930E94951384EDA9
:1011500092E09F938F930E9495130F900F900F90A2
:101160000F900F900F900E94320E0E9474080E9400
:10117000F90D0C94F80D0C9409048F929F92AF9284
:10118000BF92CF92DF92EF92FF926B017C0180E0E1
:1011900090E00E94E40F4C01A12CB12CEE24FF241E
:1011A00080E090E00E94E40FA0E0B0E08819990987
:1011B000AA09BB09AA27BB278C159D05AE05BF054B
:1011C00078F3FF90EF90DF90CF90BF90AF909F901B
:1011D0008F9008958F929F92AF92BF92EF92FF925D
:1011E0000F931F93CF93DF93CDB7DEB764970FB6FE
:1011F000F894DEBF0FBECDBF4B015C01298B3A8B4B
:101200004B8B5C8B0E94480E29893A894B895C89FB
:10121000892B71F0232B242B252B29F062EE72E011
:1012200083E00E947508C501B4010E94BD082EC06C
:10123000188A1F868BEB98E09C878B877E018FE056
:10124000E80EF11CFE86ED861F82188619861A8626
:101250001B821C821D821E8261E070E0C701298B07
:101260003A8B4B8B5C8B0E94C30329893A894B894B
:101270005C8989019A01B501A401CE0101960E9401
:101280004F0D61E070E0C7010E94C30364960FB682
:10129000F894DEBF0FBECDBFDF91CF911F910F91AC
:1012A000FF90EF90BF90AF909F908F90089580E057
:1012B00090E00E94E40FBC0180E090E00895CF929E
:1012C000DF92EF92FF920F931F93C0901C0AD09071
:1012D0001D0AE0901E0AF0901F0A0E945709009113
:1012E0001C0A10911D0A20911E0A30911F0A0C152C
:1012F0001D052E053F0549F7602B712B822B932B83
:101300001F910F91FF90EF90DF90CF900895209163
:10131000240A3091250A232B39F4AB0160E070E0F8
:1013200080E090E00C94B30F08950F931F93CF9338
:10133000DF93DC01E091160AF091170AC6E1DAE0CA
:10134000309741F1068117812085318516964D91A0
:101350005D916D917C911997041715072607370742
:1013600028F4EF010190F081E02DEACF0417150772
:101370002607370779F4028113812481358112967B
:101380004D915D916D917C911597401751076207C2
:10139000730738F71196FC93EE93B983A883DF9116
:1013A000CF911F910F9108950F931F93CF93DF93C8
:1013B00080911C0A90911D0AA0911E0AB0911F0AEB
:1013C000119680931C0A90931D0AA0931E0AB09355
:1013D0001F0A80911C0A90911D0AA0911E0AB091CB
:1013E0001F0A892B8A2B8B2B99F48091200A9091CC
:1013F000210AA091220AB091230A0196A11DB11DD4
:101400008093200A9093210AA093220AB093230A82
:10141000E091180AF091190AF0931B0AE0931A0A56
:101420001092190A1092180AA091160AB091170A80
:10143000ED0180E090E0209781F14091200A5091E9
:10144000210A6091220A7091230A0E811F8128854A
:101450003985401751076207730738F4D093170A8C
:10146000C093160A0097F1F46DC000911C0A109108
:101470001D0A20911E0A30911F0A4A815B816C81EE
:101480007D8144275527401751076207730731F7BD
:10149000CE010990D881C02DCECF1092170A10929C
:1014A000160AE0CFEC0119821882309709F446C081
:1014B000109791F0028113812481358112964D910C
:1014C0005D916D917C9115974017510762077307E5
:1014D00018F49A2F8B2F02C09E2F8F2FC92F282FE1
:1014E000D22F0190F081E02D0D90BC91A02D30976E
:1014F00019F4B983A8831DC0109719F4F983E88300
:1015000018C0028113812481358112964D915D911D
:101510006D917C911597401751076207730718F476
:101520003A2F2B2F02C03E2F2F2F38832983C32F12
:10153000D7CF90931A0A80931B0A04C0B0931B0A5A
:10154000A0931A0ADF91CF911F910F9108958F9266
:101550009F92AF92BF92CF92DF92EF92FF9281E083
:1015600090E09093250A8093240A80911A0A909122
:101570001B0A892B51F40E94D4090E9457096F3F1E
:101580007F4F81059105C9F37AC00E9457096B010D
:101590007C0136C0AA24BB24681579058A059B0501
:1015A00078F4E0911A0AF0911B0A82809380A4805B
:1015B000B5800E9457096C157D058E059F0550F773
:1015C000A0911A0AB0911B0A8D919C91119790934A
:1015D0001B0A80931A0A12961D921D921D921C924C
:1015E000159716961D921D921D921C9219971A9688
:1015F000ED91FC911B971C968D919C911D971995CF
:10160000E0911A0AF0911B0A309741F40E945709A1
:101610006C157D058E059F0508F52FC0828093808F
:10162000A480B5800E9457096C157D058E059F0525
:1016300008F4B7CFAA24BB24681579058A059B0551
:1016400008F0AFCFA5019401261B370B480B590BAF
:101650002431310541055105C8F6A3CFE0911A0A9E
:10166000F0911B0A309779F40E9457094B015C01F5
:101670006C157D058E059F05E8F40E94D409C12CE8
:10168000D12C7601BDCF82809380A480B58034E1D7
:10169000831A9108A108B1080E945709DC01CB0107
:1016A0004496A11DB11D88169906AA06BB0608F42A
:1016B000A7CF19C0DC01CB014496A11DB11DAA27FB
:1016C000BB2788159905AA05BB0540F40E94570958
:1016D000681579058A059B05C8F7CFCF88248A94B9
:1016E000982CA12CB12C1092250A1092240AC50125
:1016F000B401FF90EF90DF90CF90BF90AF909F909C
:101700008F900C948709FC01A0911A0AB0911B0AD2
:10171000A817B907C9F4ED91FC91F0931B0AE09367
:101720001A0A309759F082819381A481B581BC0156
:10173000CD01645171098109910904C06FEF7FEFF8
:1017400080E090E00C948709AAE1BAE08D919C9129
:101750001197009729F08E179F0789F0DC01F6CFCB
:10176000A8E1BAE08D919C911197009729F08E170E
:101770009F0729F0DC01F6CFA6E1BAE009C080811D
:1017800091818D939C9308958E179F07C1F3DC017F
:101790008D919C9111970097B9F708950F931F931E
:1017A00000E010E027EA3AE040E950ED63E070E045
:1017B00080E090E00E945F0F6FEF7FEFCB011F9101
:1017C0000F910C9487098F929F92AF92BF92CF9204
:1017D000DF92EF92FF920F931F93CF93DF93EC0171
:1017E0006A017B010E945F094B015C01198218822A
:1017F000C616D706E806F90628F1D701C60188976C
:10180000A109B10988159905AA05BB05D8F488E294
:10181000C80ED11CE11CF11CEE24FF240E945709C4
:10182000C616D706E806F906C8F30E9457096C15D4
:101830007D058E059F05C8F3EA85FB858C859D8512
:1018400019959EC00E94320E8C018A819B81AC81C9
:10185000BD81892B8A2B8B2B09F08EC08E819F81B5
:10186000A885B985892B8A2B8B2B09F085C0CA8264
:10187000DB82EC82FD828091200A9091210AA09166
:10188000220AB091230AC814D904EA04FB0418F40C
:101890000196A11DB11D8E839F83A887B987809172
:1018A000200A9091210AA091220AB091230A4E8128
:1018B0005F816885798584179507A607B70788F043
:1018C00080911C0A90911D0AA0911E0AB0911F0AD6
:1018D000B701A60144275527481759076A077B0710
:1018E00021F0CE010E94950943C0AA24BB248C1488
:1018F0009D04AE04BF0418F4AAE1BAE021C0A8E137
:10190000BAE0ED91FC911197309759F042815381E3
:1019100064817581C416D506E606F70610F0DF016E
:10192000F0CFF983E883CD93DC9322C042815381C9
:1019300064817581C416D506E606F70630F0DF012E
:10194000ED91FC911197309789F7F983E883CD9356
:10195000DC9380911A0A90911B0A8C179D0741F421
:10196000C701B60164517109810991090E94870973
:10197000C8010E943E0E04C0CE010E94830B77CFA7
:1019800080E090E0DF91CF911F910F91FF90EF9059
:10199000DF90CF90BF90AF909F908F9008950F935E
:1019A0001F93CF93DF93EC010E94320E8C018A814A
:1019B0009B81AC81BD81892B8A2B8B2B79F48E8105
:1019C0009F81A885B985892B8A2B8B2B39F4C80177
:1019D000DF91CF911F910F910C943E0ECE010E948A
:1019E000830BF5CF8F929F92AF92BF92CF92DF92EF
:1019F000EF92FF92CF93DF93FC0122853385232B57
:101A000009F442C06A017B01EC010E94CF0CF8E2AC
:101A1000CF16D104E104F10410F50E9457094B01DF
:101A20005C010E945709DC01CB0188199909AA09B8
:101A3000BB09AA27BB278C159D05AE05BF0588F3FA
:101A4000EA85FB858C859D85DF91CF91FF90EF9096
:101A5000DF90CF90BF90AF909F908F9019940E948D
:101A60005F09AB01BC014C0D5D1D6E1D7F1DCE01DC
:101A7000DF91CF91FF90EF90DF90CF90BF90AF902C
:101A80009F908F900C94E30BDF91CF91FF90EF909C
:101A9000DF90CF90BF90AF909F908F9008952F923E
:101AA0003F924F925F926F927F928F929F92AF92EE
:101AB000BF92CF92DF92EF92FF920F931F93CF933B
:101AC000DF9300D01F92CDB7DEB7011511052105B8
:101AD0003105C1F40F900F900F900F90DF91CF91CF
:101AE0001F910F91FF90EF90DF90CF90BF90AF903C
:101AF0009F908F907F906F905F904F903F902F902E
:101B00000C94F20C09831A832B833C836A017B01BA
:101B10008C010E94320E1C01F80182819381A48104
:101B2000B581892B8A2B8B2B09F05EC0868197812A
:101B3000A085B185892B8A2B8B2B09F055C00E947B
:101B40005F092B013C018090200A9090210AA0900F
:101B5000220AB090230A0E945F0964157505860564
:101B6000970568F3F80186829782A086B186DC012A
:101B7000CB018C0D9D1DAE1DBF1D82839383A4835D
:101B8000B58329813A814B815C81820E931EA41E0C
:101B9000B51E8C159D05AE05BF0530F4FFEF8F1AFD
:101BA0009F0AAF0ABF0AF80186829782A086B18693
:101BB000C8010E949509C1010F900F900F900F90DE
:101BC000DF91CF911F910F91FF90EF90DF90CF9019
:101BD000BF90AF909F908F907F906F905F904F904D
:101BE0003F902F900C943E0EC8010E94830BA7CF0C
:101BF00008950E94320EFFCF0895CF93DF931F9276
:101C0000CDB7DEB761E070E0CE0101960E9487118A
:101C10008981082E000C990B0F90DF91CF910895C8
:101C2000CF93DF931F92CDB7DEB7898361E070E079
:101C3000CE0101960E948D1180E090E00F90DF911F
:101C4000CF9108950E947611E1E8FAE088E192E0F0
:101C5000938382838AE092E09183808384EF92E091
:101C60000C94A9130FB6802DF894807890E0089515
:101C700078940FB6802D807890E00895FF920F93AE
:101C8000F82E0FB7087FF02AFFBE0F91FF9008953E
:101C90008091260A90E008950E94380EA091CC070A
:101CA000B091CD07CD91CDBFDD91DEBFFF91EF911A
:101CB000DF91CF91BF91AF919F918F917F916F9164
:101CC0005F914F913F912F911F910F91FF90EF9056
:101CD000DF90CF90BF90AF909F908F907F906F904C
:101CE0005F904F903F902F901F900F900CBE0F90E1
:101CF0000BBE0F900FBE0F900895240F351FF901F2
:101D000031974FEA408331974EEF408346E355E0E9
:101D10003197408331975083319710823197808378
:101D2000319790833197108231971082319780E8F4
:101D30008083319710823197108231971082C901C8
:101D400083971292E817F907E1F7F901B4976083D6
:101D5000319770838AE182938F5F8032E1F7C90106
:101D60008C9708950E944B04E4E0F1E08081806448
:101D70008083E8E6F0E0808182608083ECE6F0E03A
:101D80008081806880830E944C0EE5E0F1E09081C4
:101D900080E48927808308950F920FB6F8940F92FC
:101DA0000BB60F920CB60F921F9211242F923F92F6
:101DB0004F925F926F927F928F929F92AF92BF925B
:101DC000CF92DF92EF92FF920F931F932F933F9347
:101DD0004F935F936F937F938F939F93AF93BF9333
:101DE000CF93DF93EF93FF93A091CC07B091CD07F2
:101DF0000DB60D920EB60D920E944B04A091CC0729
:101E0000B091CD07CD91CDBFDD91DEBFFF91EF91B8
:101E1000DF91CF91BF91AF919F918F917F916F9102
:101E20005F914F913F912F911F910F91FF90EF90F4
:101E3000DF90CF90BF90AF909F908F907F906F90EA
:101E40005F904F903F902F901F900F900CBE0F907F
:101E50000BBE0F900FBE0F90189521E02093260A1D
:101E60002CE0AC01249FC001259F900D1124DC01C2
:101E7000AA5DBD4F1296ED91FC9113972081AB01A5
:101E80004F5F5F4F81E090E001C0880F4A95EAF70D
:101E90008095822380831696ED91FC911797189672
:101EA0008D919C9119971995809110089091110826
:101EB000892B11F00E948F051092260A08958F92A7
:101EC0009F92AF92BF92CF92DF92EF92FF920F93C9
:101ED0001F93DC010297D8F4E6EFF2E090E0C12C0A
:101EE00084E2D82E84EFE82EF12C460157010190B0
:101EF00004C0B694A794979487940A94D2F79F5FEE
:101F000084169506A606B70629F0953071F78FEF6F
:101F10009FEF1EC08CE08A9FF0018B9FF00D112473
:101F2000EA5DFD4FA081B1811C9211961C92119720
:101F300012961C92129715961C921E921497378334
:101F4000268311870087928711969C9380E090E00A
:101F50001F910F91FF90EF90DF90CF90BF90AF90C7
:101F60009F908F900895633071055CF52CE0289F59
:101F7000F001299FF00D1124EA5DFD4F80819181D0
:101F8000DB011496AA0FBB1FA80FB91F11965C9313
:101F90004E93A481B5812C916F5F7F4F81E090E0DB
:101FA00001C0880F6A95EAF7982F909592239C9329
:101FB0000280F381E02D9081892B808381E090E085
:101FC00008958FEF9FEF08952CE0AC01249FC0018E
:101FD000259F900D1124FC01EA5DFD4F0190F081D9
:101FE000E02D8481958108951F920F920FB60F9274
:101FF00011240BB60F922F933F934F935F936F93E0
:102000007F938F939F93AF93BF93EF93FF9360E082
:1020100070E080E090E00E942D0FFF91EF91BF9162
:10202000AF919F918F917F916F915F914F913F9170
:102030002F910F900BBE0F900FBE0F901F90189511
:102040001F920F920FB60F9211240BB60F922F937F
:102050003F934F935F936F937F938F939F93AF9330
:10206000BF93EF93FF9361E070E080E090E00E9407
:102070002D0FFF91EF91BF91AF919F918F917F9124
:102080006F915F914F913F912F910F900BBE0F90E9
:102090000FBE0F901F9018951F920F920FB60F92C0
:1020A00011240BB60F922F933F934F935F936F932F
:1020B0007F938F939F93AF93BF93EF93FF9362E0D0
:1020C00070E080E090E00E942D0FFF91EF91BF91B2
:1020D000AF919F918F917F916F915F914F913F91C0
:1020E0002F910F900BBE0F900FBE0F901F90189561
:1020F0001F920F920FB60F9211240BB60F922F93CF
:102100003F934F935F936F937F938F939F93AF937F
:10211000BF93EF93FF9360E070E081E090E00E9456
:102120002D0FFF91EF91BF91AF919F918F917F9173
:102130006F915F914F913F912F910F900BBE0F9038
:102140000FBE0F901F9018951F920F920FB60F920F
:1021500011240BB60F922F933F934F935F936F937E
:102160007F938F939F93AF93BF93EF93FF9361E020
:1021700070E081E090E00E942D0FFF91EF91BF9100
:10218000AF919F918F917F916F915F914F913F910F
:102190002F910F900BBE0F900FBE0F901F901895B0
:1021A0001F920F920FB60F9211240BB60F922F931E
:1021B0003F934F935F936F937F938F939F93AF93CF
:1021C000BF93EF93FF9362E070E081E090E00E94A4
:1021D0002D0FFF91EF91BF91AF919F918F917F91C3
:1021E0006F915F914F913F912F910F900BBE0F9088
:1021F0000FBE0F901F9018950E94CE0B0C940011EB
:10220000E7E2FAE08FEF92E0938382838BEF92E034
:102210009583848385E093E09783868363E087E1F9
:1022200090E00E94F60187E29AE00C94571163E077
:1022300087E190E00E94F6012F980895FC01DB01F0
:10224000658161708D919C91892B11F091E06927D6
:1022500070E0828193810E946D0281E090E0089598
:102260001F93CF93DF93EB01FC012581122F117097
:10227000828193810E943402892B11F4212F03C0A3
:1022800081E0212F282730E0FE0121933193CF01F7
:1022900044E050E060E070E00E948E1382E18E83A3
:1022A0001F8281E090E0DF91CF911F910895E0912E
:1022B0002F0AF091300A0097B1F0DC011D921C92B8
:1022C000309729F49093300A80932F0A09C0208117
:1022D00031812115310511F0F901F9CF9183808306
:1022E00080E090E0089584ED9FEF08950F931F9391
:1022F0000EE312E020EE32E140E855E260E070E0EB
:1023000080E090E00E94BB111F910F910895AB01F6
:10231000BC018EE392E00C94F212CF93DF93EB01B9
:10232000AB01BC0180E090E00E940B12CE01DF9176
:10233000CF910895FC01EE0FFF1FE65FFC4F019067
:10234000F081E02D6681880F991F880F991FDC01AD
:10235000AF58B54FED91FC91119712968D919C91CC
:10236000139719958091100890911108892B11F0FD
:102370000C948F050895EF92FF920F931F93CF93C4
:10238000DF93790184309105E8F5FC01EE0FFF1F22
:10239000EE0FFF1FEF58F54FF182E08213830283A7
:1023A000880F991FFC01E65FFC4FC081D181198223
:1023B000188286E08A83DB01CA0180589B47A14EC0
:1023C000BF4FE3E0880F991FAA1FBB1FEA95D1F703
:1023D0009A01AB01F4E0220F331F441F551FFA95F9
:1023E000D1F7BC01CD010E946C13215031093D830E
:1023F0002C83EF2811F088E901C088E0898380E010
:1024000090E002C08FEF9FEFDF91CF911F910F916E
:10241000FF90EF900895CF93DF93FB01460F571F76
:10242000880F991FDC01A65FBC4FE417F50749F040
:10243000CD91DC911197888185FFFDCF81918E83AD
:10244000F4CFDF91CF9108951F920F920FB60F92A4
:1024500011240BB60F922F933F934F935F936F937B
:102460007F938F939F93AF93BF93EF93FF9381E0FD
:102470008093260A80E090E00E949A111092260A2A
:10248000FF91EF91BF91AF919F918F917F916F914C
:102490005F914F913F912F910F900BBE0F900FBE08
:1024A0000F901F9018951F920F920FB60F92112444
:1024B0000BB60F922F933F934F935F936F937F933E
:1024C0008F939F93AF93BF93EF93FF9381E080939C
:1024D000260A81E090E00E949A111092260AFF914C
:1024E000EF91BF91AF919F918F917F916F915F918C
:1024F0004F913F912F910F900BBE0F900FBE0F90F9
:102500001F9018951F920F920FB60F9211240BB6C1
:102510000F922F933F934F935F936F937F938F937C
:102520009F93AF93BF93EF93FF9381E08093260A2D
:1025300082E090E00E949A111092260AFF91EF919A
:10254000BF91AF919F918F917F916F915F914F91CB
:102550003F912F910F900BBE0F900FBE0F901F90C9
:1025600018951F920F920FB60F9211240BB60F926F
:102570002F933F934F935F936F937F938F939F938B
:10258000AF93BF93EF93FF9381E08093260A83E09C
:1025900090E00E949A111092260AFF91EF91BF914C
:1025A000AF919F918F917F916F915F914F913F91EB
:1025B0002F910F900BBE0F900FBE0F901F9018958C
:1025C0000F931F93CF93DF93EC0102960E94401369
:1025D0008C01CE010E940904C801DF91CF911F91A7
:1025E0000F910895CF92DF92EF92FF920F931F9376
:1025F000CF93DF93EC017B016A018C010E5F1F4FCB
:10260000A601B701C8010E941613009731F461E0DA
:1026100070E0CE010E94C303F3CFDF91CF911F91F1
:102620000F91FF90EF90DF90CF900895CF93DF93BD
:10263000FC01EB01BA0161157105E1F024813581DE
:102640008681978128173907A9F08081918124819B
:102650003581D9011196B583A483A281B3811197E5
:102660002A233B23DC01A20FB31F8C918993615075
:102670007109E1CFCA01861B970BDF91CF910895B5
:10268000DC0116962D913C91179714964D915C9113
:10269000159712968D919C911397241B350B281733
:1026A0003907B9F0ED91FC91119716962D913C9157
:1026B0001797A9014F5F5F4F17965C934E9316973C
:1026C000019728233923E20FF31F608380E090E015
:1026D00008958FEF9FEF0895A1E21A2EAA1BBB1B4E
:1026E000FD010DC0AA1FBB1FEE1FFF1FA217B307DE
:1026F000E407F50720F0A21BB30BE40BF50B661FF4
:10270000771F881F991F1A9469F7609570958095B7
:1027100090959B01AC01BD01CF010895DC0101C082
:102720006D9341505040E0F70895CF93DF93CDB7BC
:10273000DEB7AE014A5F5F4FFA0161917191AF015F
:102740008091830A9091840A0E94D913DF91CF91DE
:1027500008950F931F93CF93DF93E091830AF09135
:10276000840A238121FF1BC08C01D0E0C0E0F80166
:1027700081918F016091830A7091840ADB01189620
:10278000ED91FC911997882331F01995892B79F3F4
:10279000DFEFCFEFECCF8AE01995892B19F08FEF9F
:1027A0009FEF02C08D2F9C2FDF91CF911F910F9132
:1027B00008952F923F924F925F926F927F928F92E5
:1027C0009F92AF92BF92CF92DF92EF92FF920F93C0
:1027D0001F93CF93DF93CDB7DEB72C970FB6F89446
:1027E000DEBF0FBECDBF7C016B018A01FC011782E9
:1027F0001682838181FFBDC1CE0101964C01F70194
:102800009381F60193FD859193FF81916F01882358
:1028100009F4ABC1853239F493FD859193FF819121
:102820006F01853229F4B70190E00E94EA15E7CFE5
:10283000512C312C20E02032A0F48B3269F030F49E
:10284000803259F0833269F420612CC08D3239F026
:10285000803339F4216026C02260246023C02860C0
:1028600021C027FD27C030ED380F3A3078F426FF1D
:1028700006C0FAE05F9E300D1124532E13C08AE08B
:10288000389E300D1124332E20620CC08E3221F47C
:1028900026FD6BC1206406C08C3611F4206802C08E
:1028A000883641F4F60193FD859193FF81916F0184
:1028B0008111C1CF982F9F7D9554933028F40C5FE0
:1028C0001F4FFFE3F9830DC0833631F0833771F07A
:1028D000833509F05BC022C0F801808189830E5FD7
:1028E0001F4F44244394512C540115C03801F2E089
:1028F0006F0E711CF801A080B18026FF03C0652D0A
:1029000070E002C06FEF7FEFC5012C870E94DF15DA
:102910002C0183012C852F77222E17C03801F2E07D
:102920006F0E711CF801A080B18026FF03C0652DD9
:1029300070E002C06FEF7FEFC5012C870E94D415B5
:102940002C012C852068222E830123FC1BC0832DA3
:1029500090E048165906B0F4B70180E290E00E947A
:10296000EA153A94F4CFF50127FC859127FE819171
:102970005F01B70190E00E94EA1531103A94F1E04E
:102980004F1A51084114510471F7E5C0843611F013
:10299000893639F5F80127FF07C06081718182818E
:1029A00093810C5F1F4F08C060817181072E000C5E
:1029B000880B990B0E5F1F4F2F76722E97FF09C061
:1029C00090958095709561957F4F8F4F9F4F2068B0
:1029D000722E2AE030E0A4010E942216A82EA81828
:1029E00044C0853729F42F7EB22E2AE030E025C07E
:1029F000F22FF97FBF2E8F36C1F018F4883579F0A9
:102A0000B4C0803719F0883721F0AFC02F2F206174
:102A1000B22EB4FE0DC08B2D8460B82E09C024FFE9
:102A20000AC09F2F9660B92E06C028E030E005C08E
:102A300020E130E002C020E132E0F801B7FE07C03B
:102A400060817181828193810C5F1F4F06C060811C
:102A5000718180E090E00E5F1F4FA4010E9422165A
:102A6000A82EA818FB2DFF777F2E76FE0BC0372DE2
:102A70003E7FA51450F474FE0AC072FC08C0372DC6
:102A80003E7E05C0BA2C372D03C0BA2C01C0B52C30
:102A900034FF0DC0FE01EA0DF11D8081803311F479
:102AA000397E09C032FF06C0B394B39404C0832FAB
:102AB000867809F0B39433FD13C030FF06C05A2C5A
:102AC000B31418F4530C5B18B32CB31468F4B701A7
:102AD00080E290E03C870E94EA15B3943C85F5CFF4
:102AE000B31410F43B1801C0312C34FF12C0B701ED
:102AF00080E390E03C870E94EA153C8532FF17C0D6
:102B000031FD03C088E790E002C088E590E0B7019E
:102B10000CC0832F867859F031FF02C08BE201C0D0
:102B200080E237FD8DE2B70190E00E94EA15A5141E
:102B300038F4B70180E390E00E94EA155A94F7CF89
:102B4000AA94F401EA0DF11D8081B70190E00E9482
:102B5000EA15A110F5CF332009F451CEB70180E278
:102B600090E00E94EA153A94F6CFF70186819781AA
:102B700002C08FEF9FEF2C960FB6F894DEBF0FBE0A
:102B8000CDBFDF91CF911F910F91FF90EF90DF901C
:102B9000CF90BF90AF909F908F907F906F905F90FD
:102BA0004F903F902F900895FC0105906150704028
:102BB0000110D8F7809590958E0F9F1F0895FC0106
:102BC0006150704001900110D8F7809590958E0F5C
:102BD0009F1F08950F931F93CF93DF93FB012381D2
:102BE00021FD03C08FEF9FEF28C022FF16C0468152
:102BF0005781248135814217530744F4A081B18164
:102C00009D012F5F3F4F318320838C932681378135
:102C10002F5F3F4F3783268310C0EB01092F182FFA
:102C20000084F185E02D1995892BE1F68E819F8135
:102C300001969F838E83812F902FDF91CF911F91DB
:102C40000F910895FA01AA27283051F1203181F11E
:102C5000E8946F936E7F6E5F7F4F8F4F9F4FAF4FA4
:102C6000B1E03ED0B4E03CD0670F781F891F9A1FB7
:102C7000A11D680F791F8A1F911DA11D6A0F711D6B
:102C8000811D911DA11D20D009F468943F912AE077
:102C9000269F11243019305D3193DEF6CF0108955F
:102CA000462F4770405D4193B3E00FD0C9F7F6CF90
:102CB000462F4F70405D4A3318F0495D31FD405258
:102CC000419302D0A9F7EACFB4E0A69597958795EE
:102CD00077956795BA95C9F70097610571050895CD
:102CE0009B01AC010A2E0694579547953795279579
:102CF000BA95C9F7620F731F841F951FA01D089511
:042D0000F894FFCF75
:102D040017001600150097029C0200000001000045
:102D140000000000FD0D00000000000200000000A3
:102D2400100E0000000080006F003600000000005C
:102D34000000A00072003900000000000000000044
:102D4400310A4000000000006D61696E28293A20B4
:102D5400546869732069732052494F5421202856BE
:102D6400657273696F6E3A20323031382E30372DE8
:102D7400646576656C2D33312D6738643666352D80
:102D840077617161722D4C617469747564652D4548
:102D940036323330290A0069646C65006D61696EEE
:102DA40000537461636B20506F696E7465723A20CE
:102DB4003078253034780A002A2A2A2052494F5480
:102DC400206B65726E656C2070616E69633A0A25CA
:102DD400730A0A002A2A2A2068616C7465642E0A20
:102DE4000A004641494C45442041535345525449F5
:102DF4004F4E2E000C00000306080A4C454400FB0D
:102E0400021700030030111E1145C000C800D00095
:022E140030018B
:040000030000016692
:00000001FF
